:020000040800F2
:10000000D8060020B5010008150D0008450C0008B1
:10001000110D0008BD020008491100080000000091
:100020000000000000000000000000003D1100087A
:10003000C102000800000000391100084111000849
:10004000CF010008CF010008CF010008CF01000850
:10005000CF010008CF010008CF010008CF01000840
:10006000CF010008CF010008CF010008CF01000830
:10007000CF010008CF010008CF010008CF01000820
:10008000CF010008CF010008CF010008CF01000810
:10009000CF010008CF010008CF010008CF01000800
:1000A000CF010008CF010008CF010008CF010008F0
:1000B000CF010008CF010008CF010008CF010008E0
:1000C000CF010008CF010008CF010008CF010008D0
:1000D000CF010008CF010008CF010008CF010008C0
:1000E000CF010008CF010008CF01000800F002F89E
:1000F00000F050F814A696E8000CB244B344DA4578
:1001000001D100F047F8BAE80F000FA696E83000DA
:10011000A5EB040504EB0607AAEB0704A7F101070A
:100120004FEA15154FEA3414A4F10104AC4201D38F
:1001300000F030F813F0010F18BFFB1A43F0010371
:1001400000F001F8DBE71847081900002819000043
:10015000103A24BF78C878C1FAD8520724BF30C8F3
:1001600030C144BF04680C60704700007047000055
:100170000023002400250026103A28BF78C1FBD8B0
:10018000520728BF30C148BF0B6070471FB51FBD65
:1001900010B510BD00F058F81146FFF7F7FF01F059
:1001A000D1F800F076F803B4FFF7F2FF03BC00F0DB
:1001B0007DF800000948804709480047FEE7FEE750
:1001C000FEE7FEE7FEE7FEE7FEE7FEE7FEE7FEE707
:1001D00004480549054A064B7047000045110008D0
:1001E000ED000008D8000020D8060020D80200202A
:1001F000D80200204FF0000200B513469446964600
:10020000203922BFA0E80C50A0E80C50B1F1200129
:10021000BFF4F7AF090728BFA0E80C5048BF0CC0D7
:100220005DF804EB890028BF40F8042B08BF704735
:1002300048BF20F8022B11F0804F18BF00F8012BA7
:100240007047704770477047754600F02BF8AE4610
:1002500005006946534620F00700854618B020B5D2
:10026000FFF7B6FFBDE820404FF000064FF0000753
:100270004FF000084FF0000BAC46ACE8C009ACE80A
:10028000C009ACE8C009ACE8C00921F007018D46FF
:10029000704710B50446AFF300802046BDE810401B
:1002A000FFF781BF0048704728000020014918204F
:1002B000ABBEFEE72600020070470000FEE700002C
:1002C00070470000B0B5044600F01EF9054640F244
:1002D0001400C2F200000078611C18BF044400BF83
:1002E00000F012F9401BA042FAD3B0BD2DE9F04F47
:1002F00082B00E68002E00F0FD8041F20042C4F290
:100300000102042340F2004E904208BF03234FF63F
:10031000FF7CC4F2010E009300240123C1F2100CF3
:100320004FF0000A4FF000094BE000BF41F200021D
:10033000C4F20102009F904208BF022704F00C03A0
:100340000F229A402BEA020207FA03F34FEA9A05BA
:100350001A4346F825204E6840F20C45F202DEF8BA
:10036000082054BF22EA080242EA0802C4F201054A
:10037000CEF808202A68B30254BF22EA080242EAF3
:1003800008022A60B303DEF8042054BF22EA080200
:1003900042EA0802F303CEF80420DEF800204FF012
:1003A000010354BF22EA080242EA0802CEF8002004
:1003B0000E680AF1010A36FA0AF204F1040400F0A8
:1003C000998003FA0AFB16EA0B08F1D04E686645DD
:1003D00012DC122E56D8DFE806F0350B4D49555584
:1003E000555555555555555555555545510000BF11
:1003F000D1F80C9046E000BF4FF6FF72C1F2210227
:1004000096420FDC0022C1F2110296421AD000225D
:10041000C1F21202964215D00022C1F22102964288
:1004200010D02FE00022C1F2220296420AD0002210
:10043000C1F23102964205D00022C1F23202964248
:1004400020D100BF8A684AB1012A14BFC0F814B095
:10045000C0F810B04FF0080914E000BF4FF00409D5
:1004600010E000BFCA6802F104090BE04FF0000978
:1004700008E000BFCA6802F1080903E0CA6802F197
:100480000C0900BF02462646B8F5807F24BF04321F
:10049000203E17680F25B54027EA050509FA06F63C
:1004A00035431560CA79D2067FF582AF41F2180351
:1004B000C4F202031A68AEF57E7642F001021A60B9
:1004C0001A6802F001020192019A2AF0030256F81A
:1004D00002B040F60002C4F20102904208D040F699
:1004E0000042C4F2010290427FF420AF012725E7C9
:1004F000002723E702B0BDE8F08F0000002A08BF04
:10050000090401617047000040F2D000C2F200000F
:100510000068704740F2140040F2D001C2F20000BF
:10052000C2F2000100780A681044086070470000B9
:1005300080B542F20000C4F20200016841F01001EF
:100540000160032000F07AF80F2000F005F800F0B9
:1005500027F8002080BD000070B540F21406C2F2FA
:10056000000640F21C013278C2F200014FF47A73A7
:100570000968B3FBF2F20446B1FBF2F1084600F061
:100580004BFB0F2C4FF0010508D838B94FF0FF3066
:1005900021460022002500F025F87460284670BD31
:1005A00082B041F21800C4F202000168022241F058
:1005B00001010160016801F00101019101994168A7
:1005C00041F080514160406800F0805000900098F8
:1005D0000420C4F20100016862F31A61016002B0F4
:1005E0007047000010B54EF60C5CCEF2000CDCF843
:1005F0000030C3F3022E8EF00704042C28BF04241D
:10060000BEF103034FF0FF3E0EFA04F438BF00239F
:10061000A14399400EFA03F39A43114300F00F02ED
:1006200000F160430901043A03F564436244002881
:1006300048BF02F10C03197010BD00004EF60C51BA
:10064000CEF200010A684FF6FF031A4060F30A2257
:1006500042F0806040F0FD7008607047002804BFE1
:10066000012070472DE9F04381B042F20008C4F246
:1006700002080446D8F800000D4600F00700814249
:100680000CD9D8F8000020F007002843C8F8000073
:10069000D8F8000000F00700A8426CD1206841F2B1
:1006A00004098107C4F2020917D5410705D5D9F815
:1006B000001041F4E061C9F80010010705D5D9F830
:1006C000001041F46051C9F80010D9F80010A26878
:1006D00021F0F0011143C9F80010C00742D1D8F849
:1006E000000000F0070085420CD2D8F8000020F08E
:1006F00007002843C8F80000D8F8000000F0070001
:10070000A84238D12068410707D5D9F80010E2681F
:1007100021F4E0611143C9F80010000708D5D9F8A9
:100720000000216920F4605040EAC100C9F80000CF
:10073000D9F8002002F00C00082841F20020C0F295
:100740007A004DD141F63A23C2F38341C0F600034B
:10075000595CD20338D440F60010C0F23D00484343
:100760003EE000BF606859F8041C022808D0012848
:1007700026D1890306D4012001B0BDE8F08300BF73
:100780008901F8D5D9F8001021F003010843C9F810
:100790000000FFF7B9FE064641F28837D9F800009D
:1007A000616800F00C00B0EB810F98D0FFF7ACFE51
:1007B000801BB842F2D9032001B0BDE8F08300BF2E
:1007C0008907D8D5DEE700BFD9F8002041F24843B9
:1007D000C2F34042C0F600039A5C4843B0FBF2F01B
:1007E000D9F8001041F23842C1F30311C0F60002FB
:1007F000515C40F21C0220FA01F140F21800C2F2F2
:1008000000000068C2F200021160FFF7A5FE0020A0
:1008100001B0BDE8F0830000002804BF012070474C
:100820002DE9F04182B00446007841F20006C0078D
:10083000C4F202060CD0706800F00C00042840F0EE
:1008400081803068800303D56068002800F046810D
:10085000207880071BD5706810F00C0F09D07068E5
:1008600000F00C00082840F087807068C00300F199
:1008700083803068800703D52069012840F02E81ED
:100880003068616920F0F80040EAC10030602078EB
:10089000000713D4207840072CD4E569002D00F020
:1008A0001881706800F00C00082840F0A780012D26
:1008B00040F00481012002B0BDE8F081A069002869
:1008C00000F084800020C4F242200121C0F880148E
:1008D000FFF71AFE054600BF706A800700F1B2807C
:1008E000FFF712FE401B0228F6D9032002B0BDE834
:1008F000F08100BFF0695FEAC00808D4F06940F0F9
:100900008050F061F06900F080500090009847F24C
:100910000007C4F200073868C00549D4386840F4BD
:1009200080703860FFF7F0FD054600BF3868C005ED
:100930003ED4FFF7E9FD401B6428F7D9032002B03D
:10094000BDE8F081706800F00C00082803D17068E1
:10095000C0033FF576AF61683068002900F00C8174
:10096000B1F5A02F00F00081B1F5803F40F01A8171
:1009700040F480301CE100BF2069002840F20000F4
:10098000C4F2422000F0888001210160FFF7BCFD25
:10099000054600BF306880073FF572AFFFF7B4FD32
:1009A000401B0228F6D9032002B0BDE8F08100BF49
:1009B000E168306A002900F09D80052900F09280EE
:1009C000012940F0AF8040F00100B1E00020C4F206
:1009D00042200021C0F88014FFF796FD054600BFB5
:1009E000706A80077FF556AFFFF78EFD401B022827
:1009F000F6D9032002B0BDE8F08100BF0027C4F2A1
:100A0000422700203866FFF77FFD022D05460DD1F5
:100A10003068800140F1DE80FFF776FD401B022840
:100A20004FF00300F4D902B0BDE8F08130688001D6
:100A30004FD5FFF769FD401B02284FF00300F5D9A1
:100A4000F1E700BF40F21C00C2F20000006844F66B
:100A5000D351C1F26201A0FB0101480A019000BF1D
:100A600000BF0198411E002801913FF413AF00BF61
:100A70000198411E002801913FF40CAF00BF01987E
:100A8000411E002801913FF405AF00BF0198411EAF
:100A900000280191E4D1FDE600210160FFF734FD5B
:100AA000054600BF306880077FF5F1AEFFF72CFDEB
:100AB000401B02284FF00300F4D9B4E77068216AA4
:100AC00000F480328A4209D1616A00F470108842D1
:100AD00004D1002002B0BDE8F08100BF012002B0C7
:100AE000BDE8F08140F004003062306A40F001005F
:100AF0001EE000BF20F001003062306A20F00400E8
:100B00003062FFF701FD054641F28837306A800701
:100B100020D5FFF7F9FC401BB8424FF00300F5D990
:100B200081E700BF20F001003062306A20F004004D
:100B30003062FFF7E9FC054641F28837306A8007EA
:100B400008D4FFF7E1FC401BB842F7D9032002B0FC
:100B5000BDE8F081B8F1000F3FF59FAEF06920F0DD
:100B60008050F06199E600BF40F48020306030682A
:100B700040F480301CE000BF20F4803030603068EA
:100B800020F480203060FFF7BFFC0546306880030A
:100B90007FF55EAEFFF7B8FC401B64284FF0030002
:100BA000F4D940E720F480303060306820F48020B1
:100BB0003060FFF7A9FC0546306880033FF548AE7A
:100BC000FFF7A2FC401B6428F6D9032002B0BDE861
:100BD000F08100BF206AB0F5803F05D17168A2683E
:100BE00021F40031114371607168626A21F474115B
:100BF00011430843706001203866FFF785FC044606
:100C0000306880013FF565AFFFF77EFC001B0228CE
:100C10004FF00300F4D906E7411E0020B0EB116F3E
:100C20001CBF012070474EF21002CEF2000251604C
:100C30004EF62351CEF20001F0230B700721906095
:100C400011607047FEE700002DE9F04385B00027F2
:100C500041F21800CDE90377CDE90177C4F2020033
:100C6000016840F6000541F0100101600168C4F21E
:100C7000010501F01001009100990168012241F085
:100C80002001016001680F2601F020010091009908
:100C900001684FF0010841F004010160016801F0B2
:100CA000040100910099016841F0080101600068A9
:100CB0000F2100F00800009000982846FFF71EFC66
:100CC00005F580642046032101224FF00309FFF758
:100CD00015FCCDE90168022001AE0490284631469A
:100CE0000397FFF703FBF02001A981E88101284663
:100CF0003146FFF7FBFA112002A981E801032046E3
:100D00003146CDF80490FFF7F1FA05B0BDE8F08365
:100D1000FEE70000FEE7000070B540F60044002545
:100D2000C4F2010445F0B000C0B200F09DF91020FB
:100D300000F09AF90020002600F096F920460221E2
:100D40000122FFF7DBFB204601210122FFF7D6FB42
:100D5000204602210022FFF7D1FB2046012100227C
:100D6000FFF7CCFB782000F021F8402000F01EF8BF
:100D7000002000F01BF8204602210022FFF7BEFBF6
:100D8000204601210122FFF7B9FB20460221012262
:100D9000FFF7B4FB701C46B2B6F1FF3FCEDCE8B201
:100DA0000135072828BF70BDBCE70000B0B540F68C
:100DB0000044C4F20104054600F0800220460221EE
:100DC000FFF79CFB204601210122FFF797FB2046FD
:100DD00001210022FFF792FB05F04002204602218C
:100DE000FFF78CFB204601210122FFF787FB2046FD
:100DF00001210022FFF782FB05F02002204602219C
:100E0000FFF77CFB204601210122FFF777FB2046FC
:100E100001210022FFF772FB05F01002204602219B
:100E2000FFF76CFB204601210122FFF767FB2046FC
:100E300001210022FFF762FB05F008022046022193
:100E4000FFF75CFB204601210122FFF757FB2046FC
:100E500001210022FFF752FB05F004022046022187
:100E6000FFF74CFB204601210122FFF747FB2046FC
:100E700001210022FFF742FB05F002022046022179
:100E8000FFF73CFB204601210122FFF737FB2046FC
:100E900001210022FFF732FB05F00102204602216A
:100EA000FFF72CFB204601210122FFF727FB2046FC
:100EB00001210022FFF722FB204601210122FFF73A
:100EC0001DFB204601210022BDE8B040FFF716BB04
:100ED00080B5AE2000F0C8F8D52000F0C5F880201D
:100EE00000F0C2F8A82000F0BFF83F2000F0BCF8E6
:100EF000D32000F0B9F8002000F0B6F8402000F050
:100F0000B3F8A12000F0B0F8C82000F0ADF8DA2066
:100F100000F0AAF8122000F0A7F8812000F0A4F851
:100F2000CF2000F0A1F8D92000F09EF8F12000F0C9
:100F30009BF8DB2000F098F8302000F095F8A42012
:100F400000F092F8A62000F08FF88D2000F08CF8C9
:100F5000142000F089F8AF2000F086F8BDE880404A
:100F6000FFF7DABE2DE9F04780467E2000EB48000F
:100F700017466FF0070240F0B00002EBC104C0B2A8
:100F8000E5B200F071F8280900F11009484600F0B8
:100F90006BF804F0080A504600F066F841F24A4047
:100FA000C0F6000000EB07114FF60060CFF6FF70AF
:100FB000085CA1F5007600F08BF87078B778F478CB
:100FC000357900F085F8384600F082F8204600F0C8
:100FD0007FF8284600F07CF8707900F079F8B07955
:100FE00000F076F8F07900F073F84FF0FF3000EB86
:100FF000480040F0B000C0B200F036F8484600F0BB
:1010000033F8504600F030F8307A00F061F8707A2A
:1010100000F05EF8B07A00F05BF8F07A00F058F873
:10102000307B00F055F8707B00F052F8B07B00F098
:101030004FF8F07BBDE8F04700F04AB8F0B581B05A
:10104000144612786AB10D46064600277819C1B2D7
:10105000D2B23046FFF786FF0137F8B2225C002A91
:10106000F4D101B0F0BD0000B0B540F60044C4F2C8
:1010700001040546204602210122FFF73FFA2046DF
:1010800001210122FFF73AFA204602210022FFF750
:1010900035FA204601210022FFF730FA7820FFF7C9
:1010A00085FE0020FFF782FE2846FFF77FFE2046E0
:1010B00002210022FFF722FA204601210122FFF738
:1010C0001DFA204602210122BDE8B040FFF716BA02
:1010D000B0B540F60044C4F20104054620460221A2
:1010E0000122FFF70BFA204601210122FFF706FA41
:1010F000204602210022FFF701FA204601210022AA
:10110000FFF7FCF97820FFF751FE4020FFF74EFE75
:101110002846FFF74BFE204602210022FFF7EEF99A
:10112000204601210122FFF7E9F920460221012290
:10113000BDE8B040FFF7E2B970470000704700001B
:10114000FFF7E8B970470000FEE70000B0B540F6D1
:101150000805C4F20105686840F2000440F00F0081
:1011600068606868C2F2000420F0010068602868C6
:10117000C00609D40520FFF7A5F82868C00603D4E7
:1011800000210020CBE000BF2868800608D405209D
:10119000FFF798F82868800602D401200021BEE0FD
:1011A0002868400608D40520FFF78CF82868400618
:1011B00002D402200021B2E02868000608D40520ED
:1011C000FFF780F82868000602D403200021A6E07B
:1011D000686840F001006860686820F0020068609C
:1011E0002868C00608D40520FFF76CF82868C006F8
:1011F00002D40020012192E02868800608D405204E
:10120000FFF760F82868800602D40121012086E0FB
:101210002868400608D40520FFF754F828684006DF
:1012200002D4022001217AE02868000608D40520B3
:10123000FFF748F82868000602D4032001216EE079
:10124000686840F002006860686820F00400686028
:101250002868C00608D40520FFF734F82868C006BF
:1012600002D4002002215AE02868800608D4052014
:10127000FFF728F82868800602D4012002214EE0FA
:101280002868400608D40520FFF71CF828684006A7
:1012900002D40221022042E02868000608D405207A
:1012A000FFF710F82868000602D40320022136E078
:1012B000686840F004006860686820F008006860B2
:1012C0002868C00608D40520FEF7FCFF2868C00681
:1012D00002D40020032122E02868800608D40520DB
:1012E000FEF7F0FF2868800602D40120032116E0F3
:1012F0002868400608D40520FEF7E4FF2868400669
:1013000002D4022003210AE02868000612D4052036
:10131000FEF7D8FF286800060CD40321032004EB55
:101320008101084440782178884204BF2020B0BD64
:101330002070B0BD686840F0080068602020207010
:10134000B0BD000090B0FFF7F3F800240120CDE914
:101350000B44CDE9094406900A904FF4E0104FF495
:10136000803102250F9006A8CDE90714CDE90D5173
:10137000FFF752FA20B1EFF3108072B6FEE700BF1C
:101380000F20CDE901054FF48060CDE9040401A8E8
:1013900002210394FFF762F920B1EFF3108072B6D7
:1013A000FEE700BFFFF750FCFFF792FDFFF7B4FC2C
:1013B00040F2880540F2200641F64A29C2F20005B3
:1013C000C2F200060FF260080027C0F6000907E02D
:1013D0004446FFF7A1FC012001212246FFF72EFE23
:1013E000FFF792F86968401A1528F9D3FFF78CF8CF
:1013F0006860FFF7ABFE20283070F1D03D28E7D0C1
:10140000432807D1284600F8087B4021FEF7F2FE6A
:101410004C46DEE729783B29E2D84A1C2C4604F8E2
:10142000082B6054A754D4E743616C63756C6174F6
:10143000696E672E2E2E00000000000000000000E4
:101440000102030406070809010200000000000071
:1014500000000000000000000000000000F8000094
:101460000000000000333000000000100C06100CDB
:101470000600000000000000000040C07840C07876
:101480004000043F04043F040400007088FC08305E
:101490000000001820FF211E0000F008F000E018F6
:1014A000000000211C031E211E0000F008887000AF
:1014B00000001E2123241927211010160E00000001
:1014C00000000000000000000000000000E0180420
:1014D0000200000000071820400000020418E0008D
:1014E00000000040201807000000404080F08040CD
:1014F00040000202010F01020200000000F00000A3
:1015000000000101011F01010100000000000000B6
:10151000000080B07000000000000000000000002B
:1015200000000001010101010101000000000000B4
:10153000000000303000000000000000000080606B
:101540001804006018060100000000E010080810F0
:10155000E000000F102020100F00001010F8000015
:1015600000000020203F20200000007008080888AC
:10157000700000302824222130000030088888487C
:1015800030000018202020110E000000C02010F8AC
:10159000000000070424243F240000F8088888087D
:1015A00008000019212020110E0000E01088881882
:1015B0000000000F112020110E0000380808C83864
:1015C00008000000003F0000000000708808088844
:1015D0007000001C222121221C0000E010080810CD
:1015E000E0000000312222110F00000000C0C00006
:1015F000000000000030300000000000008000000B
:10160000000000008060000000000000804020100A
:101610000800000102040810200040404040404003
:101620004000040404040404040000081020408066
:10163000000000201008040201000070480808089B
:10164000F0000000003036010000C030C828E8106B
:10165000E0000718272423140B000000C038E00026
:101660000000203C23020227382008F88888887070
:101670000000203F202020110E00C030080808087C
:101680003800071820202010080008F80808081063
:10169000E000203F202020100F0008F88888E8088C
:1016A0001000203F20202320180008F88888E80830
:1016B0001000203F200003000000C0300808083858
:1016C000000007182020221E020008F80800000869
:1016D000F808203F210101213F20000808F80808F0
:1016E00000000020203F2020000000000808F8082B
:1016F0000800C08080807F00000008F888C028189B
:101700000800203F20012638200008F808000000CB
:101710000000203F20202020300008F8F800F8F8D2
:101720000800203F003F003F200008F830C00008BC
:10173000F808203F200007183F00E01008080810B4
:10174000E0000F10202020100F0008F808080808FB
:10175000F000203F210101010000E01008080810FE
:10176000E0000F18242438504F0008F88888888833
:101770007000203F2000030C30200070880808080B
:1017800038000038202121221C00180808F8080819
:1017900018000000203F2000000008F808000008A2
:1017A000F808001F202020201F000878880000C8AB
:1017B0003808000007380E010000F80800F800089B
:1017C000F800033C0700073C0300081868808068A5
:1017D000180820302C03032C30200838C800C838E3
:1017E00008000000203F2000000010080808C8384A
:1017F00008002038262120201800000000FE0202E8
:1018000002000000007F40404000000C30C000009B
:101810000000000000010638C00000020202FE00C5
:101820000000004040407F0000000000040202026F
:1018300004000000000000000000000000000000A4
:101840000000808080808080808000020204000090
:101850000000000000000000000000008080808088
:1018600000000019242222223F2008F80080800076
:101870000000003F112020110E0000000080808039
:101880000000000E11202020110000000080808840
:10189000F800000E112020103F2000008080808082
:1018A0000000001F222222221300008080F088887E
:1018B00088180020203F20200000000080808080C9
:1018C0008000006B94949493600008F800808080FE
:1018D0000000203F210000203F2000809898000059
:1018E00000000020203F2020000000000080989889
:1018F000000000C08080807F000008F80000808029
:101900008000203F24022D302000000808F800004D
:1019100000000020203F2020000080808080808008
:101920008000203F20003F20003F8080008080809A
:101930000000203F210000203F20000080808080A8
:101940000000001F202020201F00808000808000D9
:10195000000080FFA12020110E0000000080808088
:101960008000000E112020A0FF80808080008080F9
:10197000800020203F212000010000008080808026
:1019800080000033242424241900008080E080801B
:1019900000000000001F2020000080800000008068
:1019A0008000001F202020103F20808080000080C9
:1019B000808000010E3008060100808000800080D9
:1019C00080800F300C030C300F000080800080807E
:1019D00080000020312E0E312000808080000080A9
:1019E000808080818E701806010000808080808059
:1019F00080000021302C2221300000000000807C7B
:101A0000020200000000003F404000000000FF0014
:101A1000000000000000FF0000000002027C8000C7
:101A200000000040403F00000000000601010202EB
:101A30000404000000000000000002030405060783
:101A400008090A0B0C0D0E0F101052656164790025
:101A5000701A000800000020280000005001000853
:101A6000981A000828000020B00600007001000845
:101A7000203738392F3435362A3132332D43303D33
:101A80002B000000010000001000000000127A008E
:081A900020000000000000002E
:04000005080000ED02
:00000001FF
